S01400006279676765726E5F70726F6A2E7372656308
S11300000C94F6000C9487030C9413010C940904CB
S11300100C9413010C9413010C9413010C9413010C
S11300200C9413010C9413010C9413010C941301FC
S11300300C9413010C9413010C9413010C941301EC
S11300400C9413010C9413010C9413010C941301DC
S11300500C9413010C9413010C9413010C941301CC
S11300600C9413010C9413010C9413010C941301BC
S113007000000000005C00000C000C007C287C28C0
S113008058DC68002410480028542840000C000064
S1130090007884008478000054385400107C1000E8
S11300A080400000101010000040000060100C00A0
S11300B038543800487C40004864580044542C00AC
S11300C01C107C005C5424003854240064140C007C
S11300D068542C0048543800004800008048000050
S11300E0102844002828280044281000045408003C
S11300F038445C00781478007C5428003844280084
S11301007C4438007C5444007C140400384474005B
S11301107C107C00447C440020403C007C106C003B
S11301207C4040007C187C0078103C003844380047
S11301307C1408003844B8007C1468004854240037
S1130140047C04007C407C003C603C007C307C00EF
S11301506C106C000C700C0064544C00007C440067
S11301600C106000447C00000804080080808000BB
S113017000040800304878007C48300030484800CB
S113018030487C00306850001078140090A8780043
S11301907C08700050744000808074007C106800FB
S11301A0447C4000781078007808700030483000B3
S11301B0F82810003048F80078100800505828003B
S11301C0083C4800384078003840380078207800EF
S11301D04830480098A07800486858001078840097
S11301E0007C0000847810000804080411241FBE59
S11301F0CFEFD4E0DEBFCDBF12E0A0E0B1E0EEE689
S1130200F5E102C005900D92AC39B107D9F722E0AF
S1130210ACE9B2E001C01D92AC3AB207E1F70E942A
S11302204A040C94B50A0C940000EBE8F0E08081D9
S11302308E7F808380818D7F8083EAE8F0E08081F7
S11302408860808380818F7E80830895EAE8F0E06F
S113025080818160808380818D7F808380818B7F9A
S113026080830895EBE8F0E080818064808380815E
S11302708F778083089581B3806181BB0E941501CB
S11302800E9426010E94320110928700109286007B
S11302900895E0E0F4E1108282E68A95F1F7000027
S11302A06081709101148091021490910314089557
S11302B080E090E005C020E1280F2093001401960F
S11302C088309105C4F308950E944901962F872F21
S11302D008950E946401292F843170F090E08C3ECF
S11302E091056CF4243170F0822F90E08C3E9105DE
S11302F064F484E090E0089580E090E0089581E063
S113030090E0089583E090E0089582E090E00895FD
S1130310CF93DF930E94CA048AE70E94D504C0E009
S1130320D0E007C0FE01E158FD4F80810E94EB043C
S11303302196C630D105B4F3DF91CF910895CF93C0
S1130340C0E01FC080919E0290919F028C0F911D6E
S11303508A30910544F4880F991FFC01E559FD4F3B
S11303608081918102C081E291E0FC010190002032
S1130370E9F73197BF01681B790B4C2F0E94510597
S1130380CF5FC830F8F280919C020E948801CF911F
S1130390089580919E0290919F02019790939F02ED
S11303A080939E02992324F410929F0210929E023D
S11303B0089580919E0290919F02019690939F02CE
S11303C080939E02099734F088E090E090939F0216
S11303D080939E02089580919C0290919D020196C3
S11303E090939D0280939C02089744F00E94D90147
S11303F087E090E090939D0280939C020E949F016D
S1130400089580919C0290919D02019790939D0282
S113041080939C02992334F40E94C90110929D0296
S113042010929C020E949F0108958FB9779BFECF82
S113043008958FB9779BFECF8FB1089586B38F7ED1
S113044088BB089586B3806188BB089587B38062B2
S113045087BB87B3806887BB87B3806187BB87B35B
S11304608F7B87BB0E94220283E58DB90E94220202
S11304700895CF93C82F0E941E0283E00E941502A4
S11304808C2F0E9415028FE00E941902C82F0E942F
S113049022028C2FCF910895CF93DF93D82FC62FAC
S11304A00E941E0282E00E9415028D2F0E941502F6
S11304B08C2F0E9415020E942202DF91CF91089591
S11304C0CF93C82F0E941E02C83030F480E88C0FEE
S11304D00E9415020E942202CF9108951F93CF9388
S11304E0DF93182FD62FC42F0E941E0285E00E948E
S11304F01502812F0E9415028D2F0E9415028C2F48
S11305000E9415020E942202DF91CF911F9108954B
S11305100E941E0280EC0E9415020E94220208958D
S11305208AB780648ABF8BB780648BBF85B78260CB
S113053085BF85B78E7F85BF78940895482F60EE78
S11305408FE00E946E0208950E94900243E06FEFD4
S11305508AE20E946E0241EB6FEF89E20E946E0212
S113056045E06FEF88E20E946E0280E00E949E02E6
S113057043E063E08BE20E946E0240E260E28BE2C1
S11305800E946E0240E660E680E60E946E0248E049
S113059068E081E00E946E020895FF920F931F931A
S11305A0CF93DF93C62FF72E082F192F66956695E4
S11305B0669581E30E944C026C2F6295660F607E03
S11305C0685F82E30E944C026FEF84E30E944C0256
S11305D06FEF83E30E944C02DF2D6F2D85E30E94B1
S11305E04C02C0E00BC0802F912FFC01EC0FF11DD9
S11305F0608186E38C0F0E944C02CF5FCD1710F40C
S1130600C83088F381E00E946002DF91CF911F918E
S11306100F91FF900895DF92EF92FF920F931F9333
S1130620CF93DF9381E60E943902D82EDD0CDD0CD6
S1130630DD0C82E60E943902829586958770D80E79
S113064085E60E943902D82F90E00E9448067C017A
S1130650C0E00AC087010C0F111D86E68C0F0E94B2
S11306603902F8018083CF5FCD1710F4C83090F3BE
S11306706D2D7D2F8E2D9F2DDF91CF911F910F9189
S1130680FF90EF90DF9008950F931F93CF93DF9324
S1130690D62FC72F082F192F86E291E09F938F93AF
S11306A00E94B4071F92DF9381E391E09F938F939D
S11306B00E94B407DC2F1F92CF938DE391E09F93A8
S11306C08F930E94B4078DB79EB70A960FB6F8941D
S11306D09EBF0FBE8DBFC0E013C0802F912FFC01C1
S11306E0EC0FF11D80811F928F9388E391E09F931B
S11306F08F930E94B407CF5F0F900F900F900F90CD
S1130700CD1758F3DF91CF911F910F9108951F9248
S11307100F920FB60F9211242F933F934F935F9331
S11307206F937F938F939F93AF93BF93CF93EF93E5
S1130730FF938EE00E9439028E70C82FC6951F92D7
S1130740CF9384E591E09F938F930E94B4070F9019
S11307500F900F900F90C130A9F48DE20E943902DE
S11307601F928F938AE691E09F938F930E94B40720
S113077040E061E28CE20E946E020F900F900F90B5
S11307800F9017C0C63051F40E940B030E9444031B
S113079040E061E08CE20E946E020BC0C73049F475
S11307A00E940B030E94440340E062E08CE20E943A
S11307B06E0240E064E08CE20E946E028AB78064BC
S11307C08ABFFF91EF91CF91BF91AF919F918F918C
S11307D07F916F915F914F913F912F910F900FBE39
S11307E00F901F9018951F93CF93DF93182F81E0DC
S11307F090E00E944806EC01188361E071E09D2FAF
S11308000E94CD02CE010E94E006DF91CF911F919C
S113081008951F920F920FB60F9211242F933F93B6
S11308204F935F936F937F938F939F93AF93BF93F4
S1130830EF93FF9385E891E09F938F930E94B40711
S11308400F900F90FF91EF91BF91AF919F918F9176
S11308507F916F915F914F913F912F910F900FBEB8
S11308600F901F90189587B3816087BB87B3826010
S113087087BB86B3826088BB089585B7806885BFCF
S113088080B7806280BF80B78F7E80BF80B7877F4C
S113089080BF08950E9433040E943D040E943B01DE
S11308A08FE190E00E9436060E9458010E94A8043D
S11308B023E02A95F1F700000E9426020E94880294
S11308C063E476E08DE396E00E9469078FE00E947E
S11308D0FA0461E082E40E94AA0540E06BE08BE840
S11308E091E00E9451050E94A4020E949F010E946F
S11308F0690181309105A9F01CF4892BB1F018C06D
S11309008230910541F0039799F40E94EB0181E054
S11309100E94F3030DC00E94010282E00E94F303CF
S113092007C083E00E94F30303C084E00E94F30342
S11309300E94820560E082E40E94AA058FEF9FE78F
S113094021E0815090402040E1F700C000C0CDCFAD
S113095080E090E007C0FC01EB57FD4F208120931D
S11309600010019686319105B4F3E0E0F0E180E2F5
S1130970808382E080830895883018F480558093C2
S113098000100895E0E0F0E191E2908380838FEF1E
S113099080830895883040F420E8829FC0011124A8
S11309A09093A1028093A00208952091A002309117
S11309B0A102220F232F221F330B319533273695A3
S11309C0322F222737952795280F311D3093A10206
S11309D02093A00208952091A0023091A102F90170
S11309E0F45E80832F5F3F4F33703093A1022093D6
S11309F0A002089520E030E005C0F901F45E808390
S1130A002F5F3F4F211594E03907BCF31092A102E8
S1130A101092A00208958A3069F48091A002909106
S1130A20A10280589F4F9093A1028093A00280E07E
S1130A3090E008958D3049F42091A0023091A102F4
S1130A4020783093A1022093A00290EE980F903664
S1130A5028F540E050E01CC02091A0023091A10292
S1130A60D901B45EE82FF0E0B097EE0FFF1FEE0F50
S1130A70FF1FE40FF51FE059FF4FE491EC932F5F44
S1130A803F4F33703093A1022093A0024F5F5F4F1A
S1130A90443051050CF380E090E0089581E090E04B
S1130AA00895EF92FF921F93CF93DF93483020F580
S1130AB0162F7C0120E8429FC00111249093A102CB
S1130AC08093A002C0E0D0E014C0212F30E0C21710
S1130AD0D3074CF460E070E0F701EC0FFD1F808158
S1130AE00E940B0505C060E070E080E20E940B05E7
S1130AF02196C032D1054CF3DF91CF911F91FF9025
S1130B00EF900895CF93DF9380E00E94BC0480E0CF
S1130B100E94C204C0E0D0E016C0FE01F45E8081F1
S1130B2080930012CE018F779927892B59F4CE0137
S1130B30DD2314F481589F4F880F892F881F990B48
S1130B400E94BC042196C11584E0D80734F3DF91D8
S1130B50CF910895683008F088C0823451F118F4B8
S1130B60813441F00895833409F442C0843409F493
S1130B705EC0089589B3282F30E0062E02C0359553
S1130B8027950A94E2F720FF0AC021E030E002C072
S1130B90220F331F6A95E2F72095822308C021E0D3
S1130BA030E002C0220F331F6A95E2F7822B8BBB21
S1130BB0089586B3282F30E0062E02C03595279578
S1130BC00A94E2F720FF0AC021E030E002C0220FBD
S1130BD0331F6A95E2F72095822308C021E030E0B4
S1130BE002C0220F331F6A95E2F7822B88BB089557
S1130BF083B3282F30E0062E02C0359527950A943A
S1130C00E2F720FF0AC021E030E002C0220F331FC8
S1130C106A95E2F72095822308C021E030E002C003
S1130C20220F331F6A95E2F7822B85BB089580B3A8
S1130C30282F30E0062E02C0359527950A94E2F756
S1130C4020FF0AC021E030E002C0220F331F6A9562
S1130C50E2F72095822308C021E030E002C0220F91
S1130C60331F6A95E2F7822B82BB089590BD89B940
S1130C7088E18AB98EE880BD08955D9BFECF8CB96A
S1130C8080E090E008955F9BFECF8CB190E00895E2
S1130C900F931F93CF93DF938230910510F482E07A
S1130CA090E0E091A402F091A50220E030E0A0E001
S1130CB0B0E0309719F140815181028113814817C6
S1130CC05907C8F08417950769F4109731F0129604
S1130CD00C93129713961C9327C00093A4021093AD
S1130CE0A50222C02115310519F04217530718F443
S1130CF09A01BD01EF01DF01F801DBCF21153105B8
S1130D00F9F0281B390B2430310580F48A819B814A
S1130D106115710521F0FB019383828304C09093D4
S1130D20A5028093A402FE01329644C0FE01E20FA4
S1130D30F31F8193919322503109398328833AC058
S1130D402091A2023091A302232B41F420910201AD
S1130D50309103013093A3022093A2022091000159
S1130D60309101012115310541F42DB73EB7409171
S1130D70040150910501241B350BE091A202F0916E
S1130D80A302E217F307A0F42E1B3F0B2817390721
S1130D9078F0AC014E5F5F4F2417350748F04E0FD3
S1130DA05F1F5093A3024093A2028193919302C0C8
S1130DB0E0E0F0E0CF01DF91CF911F910F91089512
S1130DC0CF93DF93009709F481C0FC01329713821B
S1130DD01282A091A402B091A502109781F42081FF
S1130DE03181820F931F2091A2023091A302281710
S1130DF0390751F5F093A302E093A20267C0ED0115
S1130E0020E030E0CE17DF0740F44A815B819E0189
S1130E1041155105F1F0EA01F5CFD383C283408136
S1130E205181840F951FC817D90759F48881998176
S1130E30840F951F0296918380838A819B8193837B
S1130E4082832115310529F4F093A502E093A402CD
S1130E503DC0E901FB83EA8349915991C40FD51F31
S1130E60EC17FD0761F480819181840F951F029630
S1130E70E90199838883828193819B838A83E0E05B
S1130E80F0E012968D919C911397009719F0FD0153
S1130E90DC01F7CF8D919C9111979D012E5F3F4FFF
S1130EA0820F931F2091A2023091A30228173907C1
S1130EB069F4309729F41092A5021092A40202C09A
S1130EC013821282B093A302A093A202DF91CF9166
S1130ED008950F931F93CF93DF93009731F4611517
S1130EE0710519F480E090E03AC08B01EC016EE0EA
S1130EF070E081E090E00E94AB09FC01892B91F342
S1130F0080E883830115110571F01387028781E856
S1130F1083838091A6029091A702892B21F4F093F8
S1130F20A702E093A6022097C9F0D187C0878381E6
S1130F30826083838091A8029091A902892B71F425
S1130F40F093A902E093A8028091AA029091AB02C7
S1130F50892B21F4F093AB02E093AA02CF01DF9135
S1130F60CF911F910F910895A0E0B0E0EAEBF7E074
S1130F700C948E0AAE014B5F5F4FFA01619171913F
S1130F80AF018091A8029091A9020E94CA07E2E0F1
S1130F900C94AA0AABE0B0E0E0EDF7E00C947E0A12
S1130FA06C017B018A01FC0117821682838181FF17
S1130FB0CCC1CE0101963C01F6019381F70193FD6A
S1130FC0859193FF81917F01882309F4BAC1853209
S1130FD039F493FD859193FF81917F01853229F442
S1130FE0B60190E00E94E409E7CF912C212C312C2A
S1130FF0FFE1F315D8F08B3279F038F4803279F0D0
S11310008332A1F4232D20611DC08D3261F0803321
S113101069F4232D216016C0832D8260382EE32DC0
S1131020E4603E2E2AC0F32DF8601DC037FC2DC0AD
S113103020ED280F2A3040F08E32B9F436FC81C1FD
S1131040232D2064322E19C036FE06C08AE0989EF5
S1131050200D1124922E11C0EAE02E9E200D1124A1
S1131060222EF32DF0623F2E08C08C3621F4832DFE
S11310708068382E02C0883641F4F70193FD8591CB
S113108093FF81917F018111B3CF982F9F7D955458
S1131090933028F40C5F1F4F9FE399830DC0833670
S11310A031F0833771F0833509F059C021C0F8015C
S11310B0808189830E5F1F4F88248394912C530170
S11310C013C02801F2E04F0E511CF801A080B1803A
S11310D036FE03C0692D70E002C06FEF7FEFC501DB
S11310E00E94D9094C018201F32DFF773F2E16C0CF
S11310F0280122E0420E511CF801A080B18036FE86
S113110003C0692D70E002C06FEF7FEFC5010E943C
S1131110C7094C01F32DF0683F2E820133FC1BC03C
S1131120822D90E088169906B0F4B60180E290E032
S11311300E94E4092A94F4CFF50137FC859137FE27
S113114081915F01B60190E00E94E40921102A9484
S113115021E0821A91088114910471F7E8C0843661
S113116011F0893641F5F80137FE07C060817181BD
S1131170828193810C5F1F4F08C060817181072EAB
S1131180000C880B990B0E5F1F4FF32DFF763F2E3B
S113119097FF09C090958095709561957F4F8F4F0B
S11311A09F4FF0683F2E2AE030E0A3010E94200AFE
S11311B0882E861845C0853731F4232D2F7EB22E14
S11311C02AE030E025C0932D997FB92E8F36C1F0E7
S11311D018F4883579F0B5C0803719F0883721F0D4
S11311E0B0C0E92FE061BE2EB4FE0DC0FB2DF4604B
S11311F0BF2E09C034FE0AC0292F2660B22E06C0B5
S113120028E030E005C020E130E002C020E132E017
S1131210F801B7FE07C060817181828193810C5F00
S11312201F4F06C06081718180E090E00E5F1F4F08
S1131230A3010E94200A882E8618FB2DFF773F2EDB
S113124036FE0DC0232D2E7FA22E891458F434FEB1
S11312500BC032FC09C0832D8E7EA82E05C0B82C8D
S1131260A32C03C0B82C01C0B92CA4FE0FC0FE01EE
S1131270E80DF11D8081803321F49A2D997EA92EE9
S113128009C0A2FE06C0B394B39404C08A2D867824
S113129009F0B394A3FC11C0A0FE06C0B21488F4F4
S11312A0280C922C9B180EC0B21460F4B60180E294
S11312B090E00E94E409B394F7CFB21418F42B1809
S11312C002C0982C212CA4FE10C0B60180E390E04B
S11312D00E94E409A2FE17C0A1FC03C088E790E0C5
S11312E002C088E590E0B6010CC08A2D867859F0DA
S11312F0A1FE02C08BE201C080E2A7FC8DE2B60130
S113130090E00E94E409891438F4B60180E390E087
S11313100E94E4099A94F7CF8A94F301E80DF11D31
S11313208081B60190E00E94E4098110F5CF22206B
S113133009F442CEB60180E290E00E94E4092A94C6
S1131340F6CFF6018681978102C08FEF9FEF2B962F
S1131350E2E10C949A0A0F931F93CF93DF93869F35
S11313608001879F100D969F100D1124C8010E94C3
S11313704806EC01009729F0A80160E070E00E94A3
S1131380D209CE01DF91CF911F910F910895FC01F5
S11313900590615070400110D8F7809590958E0F9C
S11313A09F1F0895DC0101C06D9341505040E0F748
S11313B00895FC016150704001900110D8F78095A8
S11313C090958E0F9F1F08950F931F93CF93DF93D4
S11313D0FB01238121FD03C08FEF9FEF2CC022FF6F
S11313E016C046815781248135814217530744F43E
S11313F0A081B1819D012F5F3F4F318320838C9366
S1131400268137812F5F3F4F3783268314C08B019A
S1131410EC01FB010084F185E02D0995892BE1F6AF
S1131420D80116968D919C911797019617969C93C7
S11314308E931697CE01DF91CF911F910F9108954E
S1131440FA01AA27283051F1203181F1E8946F93F1
S11314506E7F6E5F7F4F8F4F9F4FAF4FB1E03ED097
S1131460B4E03CD0670F781F891F9A1FA11D680F35
S1131470791F8A1F911DA11D6A0F711D811D911D68
S1131480A11D20D009F468943F912AE0269F1124DD
S11314903019305D3193DEF6CF010895462F477041
S11314A0405D4193B3E00FD0C9F7F6CF462F4F709C
S11314B0405D4A3318F0495D31FD4052419302D0FA
S11314C0A9F7EACFB4E0A6959795879577956795A0
S11314D0BA95C9F700976105710508959B01AC01A0
S11314E00A2E06945795479537952795BA95C9F7C7
S11314F0620F731F841F951FA01D08952F923F92A2
S11315004F925F926F927F928F929F92AF92BF920F
S1131510CF92DF92EF92FF920F931F93CF93DF93BB
S1131520CDB7DEB7CA1BDB0B0FB6F894DEBF0FBE18
S1131530CDBF09942A88398848885F846E847D8465
S11315408C849B84AA84B984C884DF80EE80FD8067
S11315500C811B81AA81B981CE0FD11D0FB6F894DD
S1111560DEBF0FBECDBFED010895F894FFCF9E
S113156E0000AC0220004E45555452414C00444FED
S113157E574E005550005249474854004C45465466
S113158E002D2D2D2D000A0D43414E4652414D4541
S113159E000A0D2069643A2025303278000A0D20A5
S11315AE646174615F6C3A2025640A0D2064617471
S11315BE613A20000A696E746572727570742C201B
S11315CE49434F443A2025640A004572726F7220D3
S11315DE696E746572727570742C2065666C673AE8
S11315EE2025780A006B6C696B6B00737472696EDC
S11315FE672074657374004A6F79737469636B3A08
S113160E20257320202020202020200A0D00536C3A
S113161E696465722072696768743A2025642020B3
S113162E20200A0D00536C69646572206C65667423
S113163E3A20256420202020200A0D005374617462
S113164E6963206164647265737320746573740ACC
S113165E0D004D656E75206974656D2031004D6504
S113166E6E75206974656D2032004D656E75206946
S113167E74656D2033004D656E75206974656D203B
S113168E34004D656E75206974656D2035004D65A9
S113169E6E75206974656D2036004D656E75206912
S11316AE74656D2037004D656E75206974656D2007
S11316BE38004D656E75206974656D2039004D6571
S11316CE6E75206974656D20313000F201FE010AD9
S11316DE02160222022E023A02460252025E02183A
S11316EE3C7EDB1818AEA1DA12C8A83FD580815013
S10F16FED9212002DB30AD00A4A6AF000F
S9030000FC
