S01400006279676765726E5F70726F6A2E7372656308
S11300000C9438000C9442000C9442000C9442006E
S11300100C9442000C9442000C9442000C94420054
S11300200C9442000C9442000C9442000C94420044
S11300300C9442000C9442000C9442000C94420034
S11300400C9442000C9442000C9442000C94420024
S11300500C9442000C9442000C9442000C94420014
S11300600C9442000C9442000C9442000C94420004
S113007011241FBECFEFD4E0DEBFCDBF0E944700E6
S11300800C94BF000C94000081E087BB08950E948B
S113009044008FE39CE90197F1F700C0000060E0A1
S11300A082E40E945400F5CF673008F467C08234BC
S11300B009F118F4813439F00895833491F18434CA
S11300C009F446C0089549B3242F30E002C03595A1
S11300D027956A95E2F7A22FA170B0E0A095B0959C
S11300E081E090E002C0880F991FAA95E2F7842B63
S11300F08BBB089546B3242F30E002C03595279575
S11301006A95E2F7E22FE170F0E0E095F09581E086
S113011090E002C0880F991FEA95E2F7842B88BB10
S1130120089573B3272F30E002C0359527956A955B
S1130130E2F7422F417050E04095509581E090E005
S113014002C0880F991F4A95E2F7872B85BB089553
S113015070B3472F50E002C0559547956A95E2F772
S1130160242F217030E02095309581E090E002C08A
S1130170880F991F2A95E2F7872B82BB0895F8947C
S1050180FFCFAB
S9030000FC
