S01400006279676765726E5F70726F6A2E7372656308
S11300000C9438000C9455000C9455000C94550035
S11300100C9455000C9455000C9455000C94550008
S11300200C9455000C9455000C9455000C945500F8
S11300300C9455000C9455000C9455000C945500E8
S11300400C9455000C9455000C9455000C945500D8
S11300500C9455000C9455000C9455000C945500C8
S11300600C9455000C9455000C9455000C945500B8
S113007011241FBECFEFD4E0DEBFCDBF12E0A0E05D
S1130080B1E0E0E6FFE002C005900D92AA37B107A7
S1130090D9F722E0AAE7B2E001C01D92A438B20762
S11300A0E1F70E9418010C94AE070C940000EBE8F1
S11300B0F0E080818E7F808380818D7F8083EAE879
S11300C0F0E080818860808380818F7E80830895C2
S11300D0EAE8F0E080818160808380818D7F808385
S11300E080818B7F80830895EBE8F0E080818064D9
S11300F0808380818F778083089581B3806181BB01
S11301000E9457000E9468000E94740010928700A9
S1130110109286000895E0E0F4E1108282E68A9568
S1130120F1F70000608170910114809102149091A4
S11301300314089580E090E005C020E1280F209387
S11301400014019688309105C4F30895CF93DF938A
S11301500E948B00C62FD72F1F926F931F927F93FD
S11301608AE091E09F938F930E9429030F900F9050
S11301700F900F900F900F908D2F9C2FDF91CF91A8
S113018008950E94A600292F843170F090E08C3EDF
S113019091056CF4243170F0822F90E08C3E91052F
S11301A064F484E090E0089580E090E0089581E0B4
S11301B090E0089583E090E0089582E090E008954F
S11301C08230910571F02CF4009789F0019761F069
S11301D011C08330910589F0049761F484E191E0C2
S11301E0089581E291E0089584E291E008958AE21D
S11301F091E0089580E090E008958CE191E0089505
S11302000E948B0008950E948B00892F089587B364
S1130210816087BB089585B7806885BF80B7806299
S113022080BF80B78F7E80BF80B7877F80BF0895EF
S11302300E9407010E940B010E947D008FE190E063
S11302400E9470020E949A006DE772E087E792E0D4
S11302500E94DE020E94F1018FE291E09F938F934E
S11302600E94290360E082E40E9465010E94C100AB
S11302700E94E0009F938F938EE391E09F938F936E
S11302800E9429030E9400011F928F9387E591E049
S11302909F938F930E9429030E9403011F928F93BF
S11302A084E791E09F938F930E9429038FEF9FE24D
S11302B00197F1F700C000008DB79EB70E960FB6F8
S11302C0F8949EBF0FBE8DBFC7CF683008F088C0BA
S11302D0823451F118F4813441F00895833409F4DF
S11302E042C0843409F45EC0089589B3282F30E0F5
S11302F0062E02C0359527950A94E2F720FF0AC01E
S113030021E030E002C0220F331F6A95E2F7209506
S1130310822308C021E030E002C0220F331F6A9517
S1130320E2F7822B8BBB089586B3282F30E0062E8C
S113033002C0359527950A94E2F720FF0AC021E010
S113034030E002C0220F331F6A95E2F72095822322
S113035008C021E030E002C0220F331F6A95E2F7A3
S1130360822B88BB089583B3282F30E0062E02C069
S1130370359527950A94E2F720FF0AC021E030E082
S113038002C0220F331F6A95E2F72095822308C02A
S113039021E030E002C0220F331F6A95E2F7822B7E
S11303A085BB089580B3282F30E0062E02C0359512
S11303B027950A94E2F720FF0AC021E030E002C04A
S11303C0220F331F6A95E2F72095822308C021E0AB
S11303D030E002C0220F331F6A95E2F7822B82BB02
S11303E00895EF92FF920F931F93CF93DF9380E9C9
S11303F091E09F938F930E9429030E94CE027C0177
S11304000E94D3020F900F90C0E0D0E000E010E013
S113041020C00E94CE02FE01F85E8083208128174E
S1130420B9F099279F938F931F922F93DF93CF93C4
S113043088EA91E09F938F930E9429030F5F1F4FD7
S11304408DB79EB708960FB6F8949EBF0FBE8DBFAA
S11304502196C11598E0D907E0F2C7010E94D302A2
S1130460C0E0D0E0E12CF12C20C00E94CE02FE01BD
S1130470F85E20812817C1F099279F938F931F92CC
S11304802F93DF93CF9382EE91E09F938F930E94FB
S113049029038FEFE81AF80A8DB79EB708960FB6AE
S11304A0F8949EBF0FBE8DBF2196C11598E0D90761
S11304B0E0F2FF92EF921F930F9380E292E09F93FA
S11304C08F930E9429030F900F900F900F900F901D
S11304D00F90DF91CF911F910F91FF90EF900895AE
S11304E090BD89B988E18AB98EE880BD08955D9B85
S11304F0FECF8CB980E090E008955F9BFECF8CB175
S113050090E008958F929F92AF92BF92CF92DF9224
S1130510EF92FF92CF93DF93EC01688179818A8116
S11305209B81611571058105910521F464E279EDE2
S11305308BE597E02DE133EF41E050E00E94140792
S113054049015A019B01AC01A7EAB1E40E943307B7
S11305506B017C01ACEEB4EFA50194010E9441074C
S1130560DC01CB018C0D9D1DAE1DBF1DB7FF03C06B
S11305700197A109B04888839983AA83BB839F7795
S1130580DF91CF91FF90EF90DF90CF90BF90AF902D
S11305909F908F9008950E948202089580E091E0D8
S11305A00E9482020895A0E0B0E08093000190933D
S11305B00101A0930201B093030108950F931F93C7
S11305C0CF93DF93009731F46115710519F480E03E
S11305D090E03AC08B01EC016EE070E081E090E0C5
S11305E00E942005FC01892B91F380E88383011587
S11305F0110571F01387028781E8838380917A0261
S113060090917B02892B21F4F0937B02E0937A0290
S11306102097C9F0D187C0878381826083838091CA
S11306207C0290917D02892B71F4F0937D02E0931A
S11306307C0280917E0290917F02892B21F4F093B9
S11306407F02E0937E02CF01DF91CF911F910F9142
S11306500895A0E0B0E0EFE2F3E00C945607AE0199
S11306604B5F5F4FFA0161917191AF0180917C0200
S113067090917D020E943F03E2E00C947207ABE08C
S1130680B0E0E5E4F3E00C9446076C017B018A01D9
S1130690FC0117821682838181FFCCC1CE010196B1
S11306A03C01F6019381F70193FD859193FF8191BC
S11306B07F01882309F4BAC1853239F493FD859109
S11306C093FF81917F01853229F4B60190E00E9465
S11306D07A06E7CF912C212C312CFFE1F315D8F0C9
S11306E08B3279F038F4803279F08332A1F4232DFF
S11306F020611DC08D3261F0803369F4232D2160A7
S113070016C0832D8260382EE32DE4603E2E2AC06D
S1130710F32DF8601DC037FC2DC020ED280F2A30C2
S113072040F08E32B9F436FC81C1232D2064322E80
S113073019C036FE06C08AE0989E200D1124922E20
S113074011C0EAE02E9E200D1124222EF32DF0621A
S11307503F2E08C08C3621F4832D8068382E02C0C9
S1130760883641F4F70193FD859193FF81917F01D0
S11307708111B3CF982F9F7D9554933028F40C5F4B
S11307801F4F9FE399830DC0833631F0833771F097
S1130790833509F059C021C0F801808189830E5F37
S11307A01F4F88248394912C530113C02801F2E035
S11307B04F0E511CF801A080B18036FE03C0692D94
S11307C070E002C06FEF7FEFC5010E946F064C011D
S11307D08201F32DFF773F2E16C0280122E0420E3E
S11307E0511CF801A080B18036FE03C0692D70E071
S11307F002C06FEF7FEFC5010E945D064C01F32D2F
S1130800F0683F2E820133FC1BC0822D90E08816D5
S11308109906B0F4B60180E290E00E947A062A9428
S1130820F4CFF50137FC859137FE81915F01B60164
S113083090E00E947A0621102A9421E0821A9108FD
S11308408114910471F7E8C0843611F0893641F5BA
S1130850F80137FE07C060817181828193810C5F4A
S11308601F4F08C060817181072E000C880B990B03
S11308700E5F1F4FF32DFF763F2E97FF09C0909513
S11308808095709561957F4F8F4F9F4FF0683F2EF5
S11308902AE030E0A3010E94B606882E861845C0DF
S11308A0853731F4232D2F7EB22E2AE030E025C087
S11308B0932D997FB92E8F36C1F018F4883579F0CD
S11308C0B5C0803719F0883721F0B0C0E92FE06156
S11308D0BE2EB4FE0DC0FB2DF460BF2E09C034FE45
S11308E00AC0292F2660B22E06C028E030E005C0D9
S11308F020E130E002C020E132E0F801B7FE07C099
S113090060817181828193810C5F1F4F06C0608179
S1130910718180E090E00E5F1F4FA3010E94B60634
S1130920882E8618FB2DFF773F2E36FE0DC0232D13
S11309302E7FA22E891458F434FE0BC032FC09C059
S1130940832D8E7EA82E05C0B82CA32C03C0B82CF2
S113095001C0B92CA4FE0FC0FE01E80DF11D808179
S1130960803321F49A2D997EA92E09C0A2FE06C0D7
S1130970B394B39404C08A2D867809F0B394A3FC8D
S113098011C0A0FE06C0B21488F4280C922C9B1847
S11309900EC0B21460F4B60180E290E00E947A06C0
S11309A0B394F7CFB21418F42B1802C0982C212C4E
S11309B0A4FE10C0B60180E390E00E947A06A2FE75
S11309C017C0A1FC03C088E790E002C088E590E06E
S11309D0B6010CC08A2D867859F0A1FE02C08BE2C4
S11309E001C080E2A7FC8DE2B60190E00E947A0685
S11309F0891438F4B60180E390E00E947A069A9450
S1130A00F7CF8A94F301E80DF11D8081B60190E0DF
S1130A100E947A068110F5CF222009F442CEB60155
S1130A2080E290E00E947A062A94F6CFF60186814D
S1130A30978102C08FEF9FEF2B96E2E10C9462073F
S1130A400F931F93CF93DF93869F8001879F100D91
S1130A50969F100D1124C8010E943C05EC010097DB
S1130A6029F0A80160E070E00E946806CE01DF91E1
S1130A70CF911F910F9108950F931F93CF93DF93FD
S1130A808230910510F482E090E0E0918202F091CE
S1130A90830220E030E0A0E0B0E0309719F140811B
S1130AA051810281138148175907C8F084179507AB
S1130AB069F4109731F012960C93129713961C93C5
S1130AC027C0009382021093830222C021153105AE
S1130AD019F04217530718F49A01BD01EF01DF0121
S1130AE0F801DBCF21153105F9F0281B390B24302F
S1130AF0310580F48A819B816115710521F0FB0128
S1130B009383828304C09093830280938202FE01C4
S1130B10329644C0FE01E20FF31F81939193225059
S1130B203109398328833AC02091800230918102AF
S1130B30232B41F420910601309107013093810267
S1130B402093800220910401309105012115310583
S1130B5041F42DB73EB74091080150910901241B7F
S1130B60350BE0918002F0918102E217F307A0F4C3
S1130B702E1B3F0B2817390778F0AC014E5F5F4FEF
S1130B802417350748F04E0F5F1F5093810240939E
S1130B9080028193919302C0E0E0F0E0CF01DF9105
S1130BA0CF911F910F910895CF93DF93009709F48C
S1130BB081C0FC01329713821282A0918202B0910B
S1130BC08302109781F420813181820F931F209139
S1130BD08002309181022817390751F5F093810280
S1130BE0E093800267C0ED0120E030E0CE17DF071C
S1130BF040F44A815B819E0141155105F1F0EA01FF
S1130C00F5CFD383C28340815181840F951FC817C8
S1130C10D90759F488819981840F951F029691838D
S1130C2080838A819B81938382832115310529F4F2
S1130C30F0938302E09382023DC0E901FB83EA83DF
S1130C4049915991C40FD51FEC17FD0761F48081B8
S1130C509181840F951F0296E9019983888382818B
S1130C6093819B838A83E0E0F0E012968D919C91BE
S1130C701397009719F0FD01DC01F7CF8D919C913A
S1130C8011979D012E5F3F4F820F931F2091800289
S1130C90309181022817390769F4309729F41092AA
S1130CA083021092820202C013821282B0938102E4
S1130CB0A0938002DF91CF910895FC0105906150CB
S1130CC070400110D8F7809590958E0F9F1F08955E
S1130CD0DC0101C06D9341505040E0F70895FC01E0
S1130CE06150704001900110D8F7809590958E0F57
S1130CF09F1F08950F931F93CF93DF93FB012381CD
S1130D0021FD03C08FEF9FEF2CC022FF16C0468148
S1130D105781248135814217530744F4A081B1815E
S1130D209D012F5F3F4F318320838C932681378130
S1130D302F5F3F4F3783268314C08B01EC01FB01E7
S1130D400084F185E02D0995892BE1F6D8011696EA
S1130D508D919C911797019617969C938E93169755
S1130D60CE01DF91CF911F910F910895FA01AA2727
S1130D70283051F1203181F1E8946F936E7F6E5FDA
S1130D807F4F8F4F9F4FAF4FB1E03ED0B4E03CD088
S1130D90670F781F891F9A1FA11D680F791F8A1F6B
S1130DA0911DA11D6A0F711D811D911DA11D20D0D2
S1130DB009F468943F912AE0269F11243019305D8C
S1130DC03193DEF6CF010895462F4770405D41937D
S1130DD0B3E00FD0C9F7F6CF462F4F70405D4A33CA
S1130DE018F0495D31FD4052419302D0A9F7EACF92
S1130DF0B4E0A6959795879577956795BA95C9F7C1
S1130E0000976105710508959B01AC010A2E0694B3
S1130E105795479537952795BA95C9F7620F731F6C
S1130E20841F951FA01D0895052E97FB1EF40094A2
S1130E300E942B0757FD07D00E947D0707FC03D0B3
S1130E404EF40C942B0750954095309521953F4FC7
S1130E504F4F5F4F089590958095709561957F4FA2
S1130E608F4F9F4F08950E949F07A59F900DB49F99
S1130E70900DA49F800D911D11240895B7FF0C942B
S1130E8033070E943307821B930B08952F923F92DE
S1130E904F925F926F927F928F929F92AF92BF9286
S1130EA0CF92DF92EF92FF920F931F93CF93DF9332
S1130EB0CDB7DEB7CA1BDB0B0FB6F894DEBF0FBE8F
S1130EC0CDBF09942A88398848885F846E847D84DC
S1130ED08C849B84AA84B984C884DF80EE80FD80DE
S1130EE00C811B81AA81B981CE0FD11D0FB6F89454
S1130EF0DEBF0FBECDBFED010895A1E21A2EAA1BDD
S1130F00BB1BFD010DC0AA1FBB1FEE1FFF1FA217B5
S1130F10B307E407F50720F0A21BB30BE40BF50BB2
S1130F20661F771F881F991F1A9469F7609570953B
S1130F30809590959B01AC01BD01CF010895A29FBE
S1130F40B001B39FC001A39F700D811D1124911D99
S1130F50B29F700D811D1124911D0895F894FFCF47
S1130F60010000000000840220005B2025642C2086
S1130F7025645D004E45555452414C00444F574E34
S1130F80005550005249474854004C454654000A05
S1130F900D2D2D204C4F4F50202D2D0A0D004A6F42
S1130FA079737469636B20646972656374696F6EC5
S1130FB03A2025730A0D00536C69646572207269C6
S1130FC067687420706F736974696F6E3A20256462
S1130FD0200A0D00536C69646572206C6566742088
S1130FE0706F736974696F6E3A202564200A0D006E
S1130FF05374617274696E67205352414D20746555
S113100073742E2E2E0A0D00577269746520706851
S1131010617365206572726F723A206578745F72CD
S1131020616D5B2534645D203D20253032582028D5
S113103073686F756C642062652025303258290A04
S11310400D0052657472696576616C207068617315
S113105065206572726F723A206578745F72616D93
S11310605B2534645D203D20253032582028736888
S11310706F756C642062652025303258290A0D0092
S11310805352414D207465737420636F6D706C65A9
S11310907465642077697468200A25346420657255
S11310A0726F727320696E2077726974652070683C
S11310B061736520616E64200A2534642065727250
S11310C06F727320696E2072657472696576616CE3
S10D10D02070686173650A0A0D00C0
S9030000FC
