S01400006279676765726E5F70726F6A2E7372656308
S11300000C9438000C94F1010C9455000C942502C6
S11300100C9455000C9455000C9455000C94550008
S11300200C9455000C9455000C9455000C945500F8
S11300300C9455000C9455000C9455000C945500E8
S11300400C9455000C9455000C9455000C945500D8
S11300500C9455000C9455000C9455000C945500C8
S11300600C9455000C9455000C9455000C945500B8
S113007011241FBECFEFD4E0DEBFCDBF12E0A0E05D
S1130080B1E0E4ECFFE002C005900D92A434B107A6
S1130090D9F722E0A4E4B2E001C01D92A035B20772
S11300A0E1F70E9466020C94E0070C940000EBE870
S11300B0F0E080818E7F808380818D7F8083EAE879
S11300C0F0E080818860808380818F7E80830895C2
S11300D0EAE8F0E080818160808380818D7F808385
S11300E080818B7F80830895EBE8F0E080818064D9
S11300F0808380818F778083089581B3806181BB01
S11301000E9457000E9468000E94740010928700A9
S113011010928600089580E090E005C020E1280F49
S113012020930014019688309105C4F308958FB983
S1130130779BFECF08958FB9779BFECF8FB108953B
S113014086B38F7E88BB089586B3806188BB08958B
S113015087B3806287BB87B3806887BB87B38061BE
S113016087BB87B38F7B87BB0E94A40083E58DB9CF
S11301700E94A4000895CF93C82F0E94A00083E09A
S11301800E9497008C2F0E9497008FE00E949B0092
S1130190C82F0E94A4008C2FCF910895CF93DF9392
S11301A0D82FC62F0E94A00082E00E9497008D2FB6
S11301B00E9497008C2F0E9497000E94A400DF9158
S11301C0CF910895CF93C82F0E94A000C83030F477
S11301D080E88C0F0E9497000E94A400CF9108959C
S11301E01F93CF93DF93182FD62FC42F0E94A00004
S11301F085E00E949700812F0E9497008D2F0E9416
S113020097008C2F0E9497000E94A400DF91CF9149
S11302101F9108950E94A00080EC0E9497000E9404
S1130220A40008958AB780648ABF8BB780648BBFAB
S113023085B7826085BF85B78E7F85BF7894089522
S1130240482F60EE8FE00E94F00008950E94120192
S113025041EC6FEF8AE20E94F00049E76FEF89E218
S11302600E94F00047E86FEF88E20E94F00080E40B
S11302700E94200143E063E08BE20E94F0000895B5
S1130280FF920F931F93CF93DF93C62FF72E082F60
S1130290192F66956695669581E30E94CE006C2FB2
S11302A06295660F607E82E30E94CE00DF2D6F2D83
S11302B085E30E94CE00C0E00BC0802F912FFC018B
S11302C0EC0FF11D608186E38C0F0E94CE00CF5F9E
S11302D0CD1710F4C83088F381E00E94E200DF916A
S11302E0CF911F910F91FF900895DF92EF92FF92AB
S11302F00F931F93CF93DF9381E60E94BB00D82E08
S1130300DD0CDD0CDD0C82E60E94BB008295869537
S11303108770D80E85E60E94BB00D82F90E00E941B
S113032073037C01C0E00AC087010C0F111D86E62F
S11303308C0F0E94BB00F8018083CF5FCD1710F4AF
S1130340C83090F36D2D7D2F8E2D9F2DDF91CF9191
S11303501F910F91FF90EF90DF9008950F931F93DB
S1130360CF93DF93D62FC72F082F192F86E291E062
S11303709F938F930E94DF041F92DF9381E391E0A8
S11303809F938F930E94DF04DC2F1F92CF938DE302
S113039091E09F938F930E94DF048DB79EB70A96D6
S11303A00FB6F8949EBF0FBE8DBFC0E013C0802F60
S11303B0912FFC01EC0FF11D80811F928F9388E334
S11303C091E09F938F930E94DF04CF5F0F900F9073
S11303D00F900F90CD1758F3DF91CF911F910F918C
S11303E008951F920F920FB60F9211242F933F93EB
S11303F04F935F936F937F938F939F93AF93BF9329
S1130400EF93FF938EE00E94BB008E708C3021F43A
S11304100E9475010E94AE0140E065E08CE20E94FA
S1130420F0008AB780648ABFFF91EF91BF91AF91CA
S11304309F918F917F916F915F914F913F912F91F8
S11304400F900FBE0F901F9018951F920F920FB62A
S11304500F9211242F933F934F935F936F937F9346
S11304608F939F93AF93BF93EF93FF9384E591E0B2
S11304709F938F930E94DF040F900F90FF91EF9151
S1130480BF91AF919F918F917F916F915F914F91A8
S11304903F912F910F900FBE0F901F90189587B327
S11304A0816087BB87B3826087BB86B3826088BB69
S11304B0089585B7806885BF80B7806280BF80B7A4
S11304C08F7E80BF80B7877F80BF08950E944F02D0
S11304D00E9459020E947D008FE190E00E94610316
S11304E00E948B000E94B00223E02A95F1F70000DD
S11304F00E94A8000E940A016EE673E088E693E079
S11305000E9494048FE00E94C40261E082E40E948D
S1130510D5020E9426018EE00E94BB0084E090E098
S11305200E947303EC0182E1888384E3898386E576
S11305308A8360EF74E08C2F9D2F0E944001CE01CE
S11305400E940B0460E082E40E94D5028FEF9FEFCB
S11305502EE0815090402040E1F700C00000DBCF46
S113056080E090E007C0FC01E25DFD4F2081209314
S11305700010019686319105B4F3E0E0F0E180E2E9
S1130580808382E08083089520E030E005C0F90193
S1130590F45E80832F5F3F4F211594E03907BCF34D
S11305A010924502109244020895683008F088C001
S11305B0823451F118F4813441F00895833409F4FC
S11305C042C0843409F45EC0089589B3282F30E012
S11305D0062E02C0359527950A94E2F720FF0AC03B
S11305E021E030E002C0220F331F6A95E2F7209524
S11305F0822308C021E030E002C0220F331F6A9535
S1130600E2F7822B8BBB089586B3282F30E0062EA9
S113061002C0359527950A94E2F720FF0AC021E02D
S113062030E002C0220F331F6A95E2F7209582233F
S113063008C021E030E002C0220F331F6A95E2F7C0
S1130640822B88BB089583B3282F30E0062E02C086
S1130650359527950A94E2F720FF0AC021E030E09F
S113066002C0220F331F6A95E2F72095822308C047
S113067021E030E002C0220F331F6A95E2F7822B9B
S113068085BB089580B3282F30E0062E02C035952F
S113069027950A94E2F720FF0AC021E030E002C067
S11306A0220F331F6A95E2F72095822308C021E0C8
S11306B030E002C0220F331F6A95E2F7822B82BB1F
S11306C0089590BD89B988E18AB98EE880BD0895FE
S11306D05D9BFECF8CB980E090E008955F9BFECFD8
S11306E08CB190E008950F931F93CF93DF938230E2
S11306F0910510F482E090E0E0914802F091490203
S113070020E030E0A0E0B0E0309719F14081518161
S11307100281138148175907C8F08417950769F4B3
S1130720109731F012960C93129713961C9327C0CE
S1130730009348021093490222C02115310519F093
S11307404217530718F49A01BD01EF01DF01F801C4
S1130750DBCF21153105F9F0281B390B2430310585
S113076080F48A819B816115710521F0FB019383DB
S1130770828304C09093490280934802FE0132961A
S113078044C0FE01E20FF31F81939193225031097B
S1130790398328833AC02091460230914702232BA3
S11307A041F42091020130910301309347022093D8
S11307B0460220910001309101012115310541F4D7
S11307C02DB73EB74091040150910501241B350B10
S11307D0E0914602F0914702E217F307A0F42E1BC2
S11307E03F0B2817390778F0AC014E5F5F4F241791
S11307F0350748F04E0F5F1F50934702409346025F
S11308008193919302C0E0E0F0E0CF01DF91CF91BA
S11308101F910F910895CF93DF93009709F481C03E
S1130820FC01329713821282A0914802B0914902CE
S1130830109781F420813181820F931F2091460209
S1130840309147022817390751F5F0934702E09396
S1130850460267C0ED0120E030E0CE17DF0740F428
S11308604A815B819E0141155105F1F0EA01F5CF02
S1130870D383C28340815181840F951FC817D90740
S113088059F488819981840F951F029691838083FE
S11308908A819B81938382832115310529F4F09306
S11308A04902E09348023DC0E901FB83EA83499190
S11308B05991C40FD51FEC17FD0761F48081918114
S11308C0840F951F0296E90199838883828193811D
S11308D09B838A83E0E0F0E012968D919C911397BC
S11308E0009719F0FD01DC01F7CF8D919C911197D0
S11308F09D012E5F3F4F820F931F2091460230913E
S113090047022817390769F4309729F410924902ED
S11309101092480202C013821282B0934702A0933D
S11309204602DF91CF9108950F931F93CF93DF93E6
S1130930009731F46115710519F480E090E03AC034
S11309408B01EC016EE070E081E090E00E94D6063D
S1130950FC01892B91F380E883830115110571F063
S11309601387028781E8838380914A0290914B0226
S1130970892B21F4F0934B02E0934A022097C9F0AB
S1130980D187C08783818260838380914C02909158
S11309904D02892B71F4F0934D02E0934C02809147
S11309A04E0290914F02892B21F4F0934F02E09371
S11309B04E02CF01DF91CF911F910F910895A0E0D6
S11309C0B0E0E5EEF4E00C94B907AE014B5F5F4F85
S11309D0FA0161917191AF0180914C0290914D02A5
S11309E00E94F504E2E00C94D507ABE0B0E0EBEF35
S11309F0F4E00C94A9076C017B018A01FC011782C5
S1130A001682838181FFCCC1CE0101963C01F6019F
S1130A109381F70193FD859193FF81917F01882351
S1130A2009F4BAC1853239F493FD859193FF81911C
S1130A307F01853229F4B60190E00E940F07E7CFC9
S1130A40912C212C312CFFE1F315D8F08B3279F065
S1130A5038F4803279F08332A1F4232D20611DC053
S1130A608D3261F0803369F4232D216016C0832D0B
S1130A708260382EE32DE4603E2E2AC0F32DF86008
S1130A801DC037FC2DC020ED280F2A3040F08E32D7
S1130A90B9F436FC81C1232D2064322E19C036FEF0
S1130AA006C08AE0989E200D1124922E11C0EAE01F
S1130AB02E9E200D1124222EF32DF0623F2E08C00D
S1130AC08C3621F4832D8068382E02C0883641F498
S1130AD0F70193FD859193FF81917F018111B3CF3C
S1130AE0982F9F7D9554933028F40C5F1F4F9FE3FC
S1130AF099830DC0833631F0833771F0833509F063
S1130B0059C021C0F801808189830E5F1F4F88245A
S1130B108394912C530113C02801F2E04F0E511C11
S1130B20F801A080B18036FE03C0692D70E002C0D8
S1130B306FEF7FEFC5010E9404074C018201F32D82
S1130B40FF773F2E16C0280122E0420E511CF80107
S1130B50A080B18036FE03C0692D70E002C06FEF43
S1130B607FEFC5010E94F2064C01F32DF0683F2E81
S1130B70820133FC1BC0822D90E088169906B0F4E4
S1130B80B60180E290E00E940F072A94F4CFF501A9
S1130B9037FC859137FE81915F01B60190E00E9498
S1130BA00F0721102A9421E0821A910881149104DC
S1130BB071F7E8C0843611F0893641F5F80137FE43
S1130BC007C060817181828193810C5F1F4F08C0CF
S1130BD060817181072E000C880B990B0E5F1F4FEB
S1130BE0F32DFF763F2E97FF09C090958095709561
S1130BF061957F4F8F4F9F4FF0683F2E2AE030E082
S1130C00A3010E944B07882E861845C0853731F40E
S1130C10232D2F7EB22E2AE030E025C0932D997F1C
S1130C20B92E8F36C1F018F4883579F0B5C0803705
S1130C3019F0883721F0B0C0E92FE061BE2EB4FE70
S1130C400DC0FB2DF460BF2E09C034FE0AC0292F4D
S1130C502660B22E06C028E030E005C020E130E076
S1130C6002C020E132E0F801B7FE07C06081718163
S1130C70828193810C5F1F4F06C06081718180E087
S1130C8090E00E5F1F4FA3010E944B07882E861829
S1130C90FB2DFF773F2E36FE0DC0232D2E7FA22E77
S1130CA0891458F434FE0BC032FC09C0832D8E7EA7
S1130CB0A82E05C0B82CA32C03C0B82C01C0B92C95
S1130CC0A4FE0FC0FE01E80DF11D8081803321F4E4
S1130CD09A2D997EA92E09C0A2FE06C0B394B3949E
S1130CE004C08A2D867809F0B394A3FC11C0A0FE39
S1130CF006C0B21488F4280C922C9B180EC0B214AF
S1130D0060F4B60180E290E00E940F07B394F7CF3D
S1130D10B21418F42B1802C0982C212CA4FE10C075
S1130D20B60180E390E00E940F07A2FE17C0A1FC69
S1130D3003C088E790E002C088E590E0B6010CC0EB
S1130D408A2D867859F0A1FE02C08BE201C080E2B0
S1130D50A7FC8DE2B60190E00E940F07891438F4D5
S1130D60B60180E390E00E940F079A94F7CF8A942B
S1130D70F301E80DF11D8081B60190E00E940F0798
S1130D808110F5CF222009F442CEB60180E290E032
S1130D900E940F072A94F6CFF6018681978102C03C
S1130DA08FEF9FEF2B96E2E10C94C5070F931F93EF
S1130DB0CF93DF93869F8001879F100D969F100D20
S1130DC01124C8010E947303EC01009729F0A801C3
S1130DD060E070E00E94FD06CE01DF91CF911F918B
S1130DE00F910895FC010590615070400110D8F7EF
S1130DF0809590958E0F9F1F0895DC0101C06D931F
S1130E0041505040E0F70895FC016150704001905A
S1130E100110D8F7809590958E0F9F1F08950F931A
S1130E201F93CF93DF93FB01238121FD03C08FEF39
S1130E309FEF2CC022FF16C0468157812481358143
S1130E404217530744F4A081B1819D012F5F3F4FA6
S1130E50318320838C93268137812F5F3F4F3783E3
S1130E60268314C08B01EC01FB010084F185E02D85
S1130E700995892BE1F6D80116968D919C911797C7
S1130E80019617969C938E931697CE01DF91CF917E
S1130E901F910F910895FA01AA27283051F12031AA
S1130EA081F1E8946F936E7F6E5F7F4F8F4F9F4FFA
S1130EB0AF4FB1E03ED0B4E03CD0670F781F891F3C
S1130EC09A1FA11D680F791F8A1F911DA11D6A0F0A
S1130ED0711D811D911DA11D20D009F468943F91BD
S1130EE02AE0269F11243019305D3193DEF6CF01BC
S1130EF00895462F4770405D4193B3E00FD0C9F782
S1130F00F6CF462F4F70405D4A3318F0495D31FDEE
S1130F104052419302D0A9F7EACFB4E0A695979541
S1130F20879577956795BA95C9F700976105710517
S1130F3008959B01AC010A2E069457954795379561
S1130F402795BA95C9F7620F731F841F951FA01DBB
S1130F5008952F923F924F925F926F927F928F9259
S1130F609F92AF92BF92CF92DF92EF92FF920F9334
S1130F701F93CF93DF93CDB7DEB7CA1BDB0B0FB63E
S1130F80F894DEBF0FBECDBF09942A8839884888FB
S1130F905F846E847D848C849B84AA84B984C88491
S1130FA0DF80EE80FD800C811B81AA81B981CE0F88
S1130FB0D11D0FB6F894DEBF0FBECDBFED0108956D
S1070FC0F894FFCFCF
S1130FC40000500220004E45555452414C00444FF9
S1130FD4574E005550005249474854004C45465416
S1130FE4002D2D2D2D000A0D43414E4652414D45F1
S1130FF4000A0D2069643A2025303278000A0D2055
S1131004646174615F6C3A2025640A0D2064617420
S1131014613A20006B6C696B6B004A6F7973746975
S1131024636B3A20257320202020202020200A0DE1
S113103400536C696465722072696768743A202588
S113104464202020200A0D00536C69646572206CAE
S11310546566743A20256420202020200A0D00535C
S11310647461746963206164647265737320746564
S113107473740A0D004D656E75206974656D2031B5
S1131084004D656E75206974656D2032004D656E82
S113109475206974656D2033004D656E752069741F
S11310A4656D2034004D656E75206974656D203559
S11310B4004D656E75206974656D2036004D656E4E
S11310C475206974656D2037004D656E75206974EB
S11310D4656D2038004D656E75206974656D203921
S11310E4004D656E75206974656D20313000AEA1C4
S11310F4DA12C8A83FD5808150D9212002DB30AD53
S107110400A4A6AFEA
S9030000FC
