:100000000C94F6000C9413010C9413010C947B02D5
:100010000C9413010C9413010C9413010C94130110
:100020000C9413010C9413010C9413010C94130100
:100030000C9413010C9413010C9413010C941301F0
:100040000C9413010C9413010C9413010C941301E0
:100050000C9413010C9413010C9413010C941301D0
:100060000C9413010C9413010C9413010C941301C0
:1000700000000000005C00000C000C007C287C28C4
:1000800058DC68002410480028542840000C000068
:10009000007884008478000054385400107C1000EC
:1000A00080400000101010000040000060100C00A4
:1000B00038543800487C40004864580044542C00B0
:1000C0001C107C005C5424003854240064140C0080
:1000D00068542C0048543800004800008048000054
:1000E0001028440028282800442810000454080040
:1000F00038445C00781478007C5428003844280088
:100100007C4438007C5444007C140400384474005F
:100110007C107C00447C440020403C007C106C003F
:100120007C4040007C187C0078103C00384438004B
:100130007C1408003844B8007C146800485424003B
:10014000047C04007C407C003C603C007C307C00F3
:100150006C106C000C700C0064544C00007C44006B
:100160000C106000447C00000804080080808000BF
:1001700000040800304878007C48300030484800CF
:1001800030487C00306850001078140090A8780047
:100190007C08700050744000808074007C106800FF
:1001A000447C4000781078007808700030483000B7
:1001B000F82810003048F80078100800505828003F
:1001C000083C4800384078003840380078207800F3
:1001D0004830480098A0780048685800107884009B
:1001E000007C0000847810000804080411241FBE5D
:1001F000CFEFD4E0DEBFCDBF12E0A0E0B1E0E0E998
:10020000F2E102C005900D92A633B107D9F722E0C2
:10021000A6E3B2E001C01D92A634B207E1F70E9446
:10022000ED020C9446090C940000EBE8F0E08081AC
:100230008E7F808380818D7F8083EAE8F0E08081FB
:100240008860808380818F7E80830895EAE8F0E073
:1002500080818160808380818D7F808380818B7F9E
:1002600080830895EBE8F0E0808180648083808162
:100270008F778083089581B3806181BB0E941501CF
:100280000E9426010E94320110928700109286007F
:100290000895E0E0F4E1108282E68A95F1F700002B
:1002A000608170910114809102149091031408955B
:1002B00080E090E005C020E1280F20930014019613
:1002C00088309105C4F308950E944901962F872F25
:1002D00008950E946401292F843170F090E08C3ED3
:1002E00091056CF4243170F0822F90E08C3E9105E2
:1002F00064F484E090E0089580E090E0089581E067
:1003000090E0089583E090E0089582E090E0089501
:100310008230910571F02CF4009789F0019761F01B
:1003200011C08330910589F0049761F486E091E073
:10033000089583E191E0089586E191E008958CE1CC
:1003400091E0089580E090E008958EE091E00895B6
:100350000E94490108950E944901892F0895CF9371
:10036000DF930E945B038AE70E946603C0E0D0E04F
:1003700007C0FE01E65EFD4F80810E947C0321964E
:10038000C630D105B4F3DF91CF910895CF93C0E08B
:100390001FC080913802909139028C0F911D8A30D4
:1003A000910544F4880F991FFC01EA5FFD4F80819D
:1003B000918102C081E291E0FC0101900020E9F707
:1003C0003197BF01681B790B4C2F0E94E203CF5F6E
:1003D000C830F8F2809136020E94AF01CF910895A3
:1003E000809138029091390201979093390280935D
:1003F0003802992324F41092390210923802089599
:10040000809138029091390201969093390280933D
:100410003802099734F088E090E090933902809395
:100420003802089580913602909137020196909398
:10043000370280933602089744F00E94000287E05A
:1004400090E090933702809336020E94C60108958F
:1004500080913602909137020197909337028093F2
:100460003602992334F40E94F00110923702109260
:1004700036020E94C60108958FB9779BFECF08957A
:100480008FB9779BFECF8FB1089586B38F7E88BBDF
:10049000089586B3806188BB089587B3806287BB67
:1004A00087B3806887BB87B3806187BB87B38F7B47
:1004B00087BB0E94490283E58DB90E9449020895D5
:1004C000CF93C82F0E94450283E00E943C028C2FEC
:1004D0000E943C028FE00E944002C82F0E94490205
:1004E0008C2FCF9108950E94450280EC0E943C021F
:1004F0000E94490208951F920F920FB60F92112485
:100500002F933F934F935F936F937F938F939F931B
:10051000AF93BF93EF93FF9386E291E09F938F9306
:100520000E9424050F900F90FF91EF91BF91AF9122
:100530009F918F917F916F915F914F913F912F91FB
:100540000F900FBE0F901F9018958BB78F7D8BBFAC
:1005500086B78E7F86BF8AB780628ABF8BB780627C
:100560008BBF7894089587B3816087BB089585B762
:10057000806885BF80B7806280BF80B78F7E80BF74
:1005800080B7877F80BF08950E9469010E9488011B
:100590009F938F938CE291E09F938F930E94240509
:1005A0000E94A8011F928F9383E491E09F938F9301
:1005B0000E9424050E94AB011F928F938AE591E06F
:1005C0009F938F930E9424058DB79EB70C960FB60C
:1005D000F8949EBF0FBE8DBF08950E94B3020E9483
:1005E000B7020E943B018FE190E00E94C7040E9485
:1005F00058010E9439030E94A5020E944D020E94E8
:10060000730264ED74E08EEC94E00E94D9048FE0F4
:100610000E948B038EE00E9460021F928F9381E7FD
:1006200091E09F938F930E9424050E94130460E041
:1006300082E40E943B040E94C4022FEF8FE791E006
:10064000215080409040E1F700C000C00E94C601E8
:100650000E9469010F900F900F900F90039711F473
:100660000E9412020E9469010297A1F60E942802CC
:10067000D1CF80E090E007C0FC01E05EFD4F20811B
:1006800020930010019686319105B4F3E0E0F0E18B
:1006900080E2808382E080830895883018F480555A
:1006A000809300100895E0E0F0E191E29083808370
:1006B0008FEF80830895883040F420E8829FC00146
:1006C000112490933B0280933A02089520913A02BC
:1006D00030913B02220F232F221F330B31953327FA
:1006E0003695322F222737952795280F311D3093C5
:1006F0003B0220933A02089520913A0230913B0246
:10070000F901F45E80832F5F3F4F337030933B02DB
:1007100020933A02089520E030E005C0F901F45E2C
:1007200080832F5F3F4F211594E03907BCF310926F
:100730003B0210923A0208958A3069F480913A029D
:1007400090913B0280589F4F90933B0280933A02D6
:1007500080E090E008958D3049F420913A02309184
:100760003B02207830933B0220933A0290EE980FA0
:10077000903628F540E050E01CC020913A023091BC
:100780003B02D901B45EE82FF0E0B097EE0FFF1FF7
:10079000EE0FFF1FE40FF51FE059FF4FE491EC93BC
:1007A0002F5F3F4F337030933B0220933A024F5FED
:1007B0005F4F443051050CF380E090E0089581E0F4
:1007C00090E00895EF92FF921F93CF93DF9348300C
:1007D00020F5162F7C0120E8429FC0011124909340
:1007E0003B0280933A02C0E0D0E014C0212F30E0F9
:1007F000C217D3074CF460E070E0F701EC0FFD1F67
:1008000080810E949C0305C060E070E080E20E944D
:100810009C032196C032D1054CF3DF91CF911F91FB
:10082000FF90EF900895CF93DF9380E00E944D03F7
:1008300080E00E945303C0E0D0E016C0FE01F45EE9
:10084000808180930012CE018F779927892B59F4EC
:10085000CE01DD2314F481589F4F880F892F881F04
:10086000990B0E944D032196C11584E0D80734F3FB
:10087000DF91CF910895683008F088C0823451F13B
:1008800018F4813441F00895833409F442C084346B
:1008900009F45EC0089589B3282F30E0062E02C007
:1008A000359527950A94E2F720FF0AC021E030E051
:1008B00002C0220F331F6A95E2F72095822308C0F9
:1008C00021E030E002C0220F331F6A95E2F7822B4D
:1008D0008BBB089586B3282F30E0062E02C03595D5
:1008E00027950A94E2F720FF0AC021E030E002C019
:1008F000220F331F6A95E2F72095822308C021E07A
:1009000030E002C0220F331F6A95E2F7822B88BBCA
:10091000089583B3282F30E0062E02C03595279521
:100920000A94E2F720FF0AC021E030E002C0220F63
:10093000331F6A95E2F72095822308C021E030E05A
:1009400002C0220F331F6A95E2F7822B85BB089500
:1009500080B3282F30E0062E02C0359527950A94E3
:10096000E2F720FF0AC021E030E002C0220F331F6F
:100970006A95E2F72095822308C021E030E002C0AA
:10098000220F331F6A95E2F7822B82BB089590BD38
:1009900089B988E18AB98EE880BD08955D9BFECF54
:1009A0008CB980E090E008955F9BFECF8CB190E021
:1009B00008950F931F93CF93DF93009731F4611540
:1009C000710519F480E090E03AC08B01EC016EE013
:1009D00070E081E090E00E941B07FC01892B91F3FD
:1009E00080E883830115110571F01387028781E880
:1009F000838380913C0290913D02892B21F4F093F6
:100A00003D02E0933C022097C9F0D187C0878381E3
:100A10008260838380913E0290913F02892B71F422
:100A2000F0933F02E0933E02809140029091410298
:100A3000892B21F4F0934102E0934002CF01DF9132
:100A4000CF911F910F910895A0E0B0E0EAE2F5E0A8
:100A50000C941F09AE014B5F5F4FFA0161917191D8
:100A6000AF0180913E0290913F020E943A05E2E080
:100A70000C943B09ABE0B0E0E0E4F5E00C940F0926
:100A80006C017B018A01FC0117821682838181FF40
:100A9000CCC1CE0101963C01F6019381F70193FD93
:100AA000859193FF81917F01882309F4BAC1853232
:100AB00039F493FD859193FF81917F01853229F46B
:100AC000B60190E00E947508E7CF912C212C312CC3
:100AD000FFE1F315D8F08B3279F038F4803279F0F9
:100AE0008332A1F4232D20611DC08D3261F080334B
:100AF00069F4232D216016C0832D8260382EE32DEA
:100B0000E4603E2E2AC0F32DF8601DC037FC2DC0D6
:100B100020ED280F2A3040F08E32B9F436FC81C126
:100B2000232D2064322E19C036FE06C08AE0989E1E
:100B3000200D1124922E11C0EAE02E9E200D1124CA
:100B4000222EF32DF0623F2E08C08C3621F4832D27
:100B50008068382E02C0883641F4F70193FD8591F4
:100B600093FF81917F018111B3CF982F9F7D955481
:100B7000933028F40C5F1F4F9FE399830DC0833699
:100B800031F0833771F0833509F059C021C0F80185
:100B9000808189830E5F1F4F88248394912C530199
:100BA00013C02801F2E04F0E511CF801A080B18063
:100BB00036FE03C0692D70E002C06FEF7FEFC50104
:100BC0000E946A084C018201F32DFF773F2E16C068
:100BD000280122E0420E511CF801A080B18036FEAF
:100BE00003C0692D70E002C06FEF7FEFC5010E9466
:100BF00058084C01F32DF0683F2E820133FC1BC0D6
:100C0000822D90E088169906B0F4B60180E290E05B
:100C10000E9475082A94F4CFF50137FC859137FEC0
:100C200081915F01B60190E00E94750821102A941D
:100C300021E0821A91088114910471F7E8C084368A
:100C400011F0893641F5F80137FE07C060817181E6
:100C5000828193810C5F1F4F08C060817181072ED4
:100C6000000C880B990B0E5F1F4FF32DFF763F2E64
:100C700097FF09C090958095709561957F4F8F4F34
:100C80009F4FF0683F2E2AE030E0A3010E94B10898
:100C9000882E861845C0853731F4232D2F7EB22E3D
:100CA0002AE030E025C0932D997FB92E8F36C1F010
:100CB00018F4883579F0B5C0803719F0883721F0FD
:100CC000B0C0E92FE061BE2EB4FE0DC0FB2DF46074
:100CD000BF2E09C034FE0AC0292F2660B22E06C0DE
:100CE00028E030E005C020E130E002C020E132E041
:100CF000F801B7FE07C060817181828193810C5F2A
:100D00001F4F06C06081718180E090E00E5F1F4F31
:100D1000A3010E94B108882E8618FB2DFF773F2E75
:100D200036FE0DC0232D2E7FA22E891458F434FEDA
:100D30000BC032FC09C0832D8E7EA82E05C0B82CB6
:100D4000A32C03C0B82C01C0B92CA4FE0FC0FE0117
:100D5000E80DF11D8081803321F49A2D997EA92E12
:100D600009C0A2FE06C0B394B39404C08A2D86784D
:100D700009F0B394A3FC11C0A0FE06C0B21488F41D
:100D8000280C922C9B180EC0B21460F4B60180E2BD
:100D900090E00E947508B394F7CFB21418F42B18A2
:100DA00002C0982C212CA4FE10C0B60180E390E074
:100DB0000E947508A2FE17C0A1FC03C088E790E05E
:100DC00002C088E590E0B6010CC08A2D867859F003
:100DD000A1FE02C08BE201C080E2A7FC8DE2B60159
:100DE00090E00E947508891438F4B60180E390E021
:100DF0000E9475089A94F7CF8A94F301E80DF11DCB
:100E00008081B60190E00E9475088110F5CF222004
:100E100009F442CEB60180E290E00E9475082A945F
:100E2000F6CFF6018681978102C08FEF9FEF2B9658
:100E3000E2E10C942B090F931F93CF93DF93869FCE
:100E40008001879F100D969F100D1124C8010E94EC
:100E50003707EC01009729F0A80160E070E00E94DC
:100E60006308CE01DF91CF911F910F9108950F93E9
:100E70001F93CF93DF938230910510F482E090E0CE
:100E8000E0914402F091450220E030E0A0E0B0E0C3
:100E9000309719F140815181028113814817590718
:100EA000C8F08417950769F4109731F012960C93E7
:100EB000129713961C9327C0009344021093450287
:100EC00022C02115310519F04217530718F49A0171
:100ED000BD01EF01DF01F801DBCF21153105F9F08C
:100EE000281B390B2430310580F48A819B816115E0
:100EF000710521F0FB019383828304C09093450226
:100F000080934402FE01329644C0FE01E20FF31FBB
:100F10008193919322503109398328833AC02091DB
:100F2000420230914302232B41F42091020130917F
:100F3000030130934302209342022091000130913B
:100F400001012115310541F42DB73EB7409104014F
:100F500050910501241B350BE0914202F0914302B0
:100F6000E217F307A0F42E1B3F0B2817390778F080
:100F7000AC014E5F5F4F2417350748F04E0F5F1FDF
:100F800050934302409342028193919302C0E0E068
:100F9000F0E0CF01DF91CF911F910F910895CF9392
:100FA000DF93009709F481C0FC013297138212820B
:100FB000A0914402B0914502109781F420813181C3
:100FC000820F931F20914202309143022817390764
:100FD00051F5F0934302E093420267C0ED0120E037
:100FE00030E0CE17DF0740F44A815B819E01411556
:100FF0005105F1F0EA01F5CFD383C28340815181DD
:10100000840F951FC817D90759F488819981840FD7
:10101000951F0296918380838A819B81938382832B
:101020002115310529F4F0934502E09344023DC0B7
:10103000E901FB83EA8349915991C40FD51FEC174D
:10104000FD0761F480819181840F951F0296E9016B
:1010500099838883828193819B838A83E0E0F0E097
:1010600012968D919C911397009719F0FD01DC0168
:10107000F7CF8D919C9111979D012E5F3F4F820F6D
:10108000931F20914202309143022817390769F4D7
:10109000309729F4109245021092440202C0138244
:1010A0001282B0934302A0934202DF91CF91089540
:1010B000FC010590615070400110D8F78095909523
:1010C0008E0F9F1F0895DC0101C06D934150504069
:1010D000E0F70895FC016150704001900110D8F7CD
:1010E000809590958E0F9F1F08950F931F93CF9318
:1010F000DF93FB01238121FD03C08FEF9FEF2CC005
:1011000022FF16C04681578124813581421753073B
:1011100044F4A081B1819D012F5F3F4F3183208333
:101120008C93268137812F5F3F4F3783268314C0EE
:101130008B01EC01FB010084F185E02D0995892BE1
:10114000E1F6D80116968D919C9117970196179606
:101150009C938E931697CE01DF91CF911F910F91A3
:101160000895FA01AA27283051F1203181F1E8943D
:101170006F936E7F6E5F7F4F8F4F9F4FAF4FB1E08A
:101180003ED0B4E03CD0670F781F891F9A1FA11D85
:10119000680F791F8A1F911DA11D6A0F711D811D86
:1011A000911DA11D20D009F468943F912AE0269F4B
:1011B00011243019305D3193DEF6CF010895462FAA
:1011C0004770405D4193B3E00FD0C9F7F6CF462F8B
:1011D0004F70405D4A3318F0495D31FD40524193F4
:1011E00002D0A9F7EACFB4E0A695979587957795B1
:1011F0006795BA95C9F700976105710508959B0138
:10120000AC010A2E06945795479537952795BA95C0
:10121000C9F7620F731F841F951FA01D08952F9299
:101220003F924F925F926F927F928F929F92AF9276
:10123000BF92CF92DF92EF92FF920F931F93CF93C3
:10124000DF93CDB7DEB7CA1BDB0B0FB6F894DEBF5A
:101250000FBECDBF09942A88398848885F846E8480
:101260007D848C849B84AA84B984C884DF80EE80CA
:10127000FD800C811B81AA81B981CE0FD11D0FB6D3
:10128000F894DEBF0FBECDBFED010895F894FFCFF7
:101290000000460220004E45555452414C00444F38
:1012A000574E005550005249474854004C4546544B
:1012B000002D2D2D2D006B6C696B6B004A6F7973BF
:1012C0007469636B3A202573202020202020202081
:1012D0000A0D00536C696465722072696768743A1C
:1012E000202564202020200A0D00536C696465725B
:1012F000206C6566743A20256420202020200A0D89
:10130000000A0D25327800537461746963206164AA
:10131000647265737320746573740A0D004D656E95
:1013200075206974656D2031004D656E7520697496
:10133000656D2032004D656E75206974656D2033D2
:10134000004D656E75206974656D2034004D656EC5
:1013500075206974656D2035004D656E7520697462
:10136000656D2036004D656E75206974656D20379A
:10137000004D656E75206974656D2038004D656E91
:1013800075206974656D2039004D656E752069742E
:10139000656D203130008D019901A501B101BD01BC
:1013A000C901D501E101ED01F901183C7EDB1818F6
:1013B000AEA1DA12C8A83FD5808150D9212002DB26
:0613C00030AD00A4A6AF51
:00000001FF
