:100000000C94F6000C94D7030C9413010C946E041A
:100010000C9413010C9413010C9413010C94130110
:100020000C9498040C9413010C9413010C94130178
:100030000C9413010C9413010C9413010C941301F0
:100040000C9413010C9413010C9413010C941301E0
:100050000C9413010C9413010C9413010C941301D0
:100060000C9413010C9413010C9413010C941301C0
:1000700000000000005C00000C000C007C287C28C4
:1000800058DC68002410480028542840000C000068
:10009000007884008478000054385400107C1000EC
:1000A00080400000101010000040000060100C00A4
:1000B00038543800487C40004864580044542C00B0
:1000C0001C107C005C5424003854240064140C0080
:1000D00068542C0048543800004800008048000054
:1000E0001028440028282800442810000454080040
:1000F00038445C00781478007C5428003844280088
:100100007C4438007C5444007C140400384474005F
:100110007C107C00447C440020403C007C106C003F
:100120007C4040007C187C0078103C00384438004B
:100130007C1408003844B8007C146800485424003B
:10014000047C04007C407C003C603C007C307C00F3
:100150006C106C000C700C0064544C00007C44006B
:100160000C106000447C00000804080080808000BF
:1001700000040800304878007C48300030484800CF
:1001800030487C00306850001078140090A8780047
:100190007C08700050744000808074007C106800FF
:1001A000447C4000781078007808700030483000B7
:1001B000F82810003048F80078100800505828003F
:1001C000083C4800384078003840380078207800F3
:1001D0004830480098A0780048685800107884009B
:1001E000007C0000847810000804080411241FBE5D
:1001F000CFEFD4E0DEBFCDBF13E0A0E0B1E0ECEC88
:10020000F6E102C005900D92A838B107D9F723E0B6
:10021000A8E8B3E001C01D92AA39B207E1F70E9435
:10022000E5040C94640B0C940000EBE8F0E0808192
:100230008E7F808380818D7F8083EAE8F0E08081FB
:100240008860808380818F7E80830895EAE8F0E073
:1002500080818160808380818D7F808380818B7F9E
:1002600080830895EBE8F0E0808180648083808162
:100270008F778083089581B3806181BB0E941501CF
:100280000E9426010E94320110928700109286007F
:100290000895E0E0F4E1108282E68A95F1F700002B
:1002A000608170910114809102149091031408955B
:1002B00080E090E005C020E1280F20930014019613
:1002C00088309105C4F308950E944901962F872F25
:1002D00008950E946401843178F0282F30E02C3E8C
:1002E00031056CF4943170F0892F90E08C3E9105CB
:1002F00064F480E090E0089584E090E0089583E065
:1003000090E0089581E090E0089582E090E0089503
:100310000E94490108950E944901892F089587E3A9
:1003200091E09F938F930E94630880918C038F5F6D
:1003300080938C030F900F90089580E00E94A90590
:100340008091060190910701FC0101900020E9F7DE
:100350003197BF01681B790B40E00E940006809135
:100360008C03805D8093F20141E061E182EE91E0D7
:100370000E9400060895CF93DF930E9479058AE7D3
:100380000E948405C0E0D0E007C0FE01E559FC4FA3
:1003900080810E949A052196C630D105B4F3DF9181
:1003A000CF910895CF93C0E01FC080918A039091B0
:1003B0008B038C0F911D8A30910544F4880F991F8F
:1003C000FC01E95AFC4F8081918102C084EF91E0E9
:1003D000FC0101900020E9F73197BF01681B790B00
:1003E0004C2F0E940006CF5FC830F8F2809188033E
:1003F0000E94BB01CF91089580918A0390918B0355
:10040000019790938B0380938A03992324F410928D
:100410008B0310928A03089580918A0390918B0335
:10042000019690938B0380938A03099734F088E0B8
:1004300090E090938B0380938A03089580918803C2
:10044000909189030196909389038093880308977C
:1004500044F00E940C0287E090E09093890380931F
:1004600088030E94D20108958091880390918903A6
:1004700001979093890380938803992334F40E9411
:10048000FC0110928903109288030E94D201089502
:100490008091880390918903892B59F489EF91E029
:1004A0009F938F930E94630881E080938D030F9048
:1004B0000F90089585E092E09F938F930E946308C8
:1004C00010928D030F900F9008958FB9779BFECFF8
:1004D00008958FB9779BFECF8FB1089586B38F7E35
:1004E00088BB089586B3806188BB089587B3806216
:1004F00087BB87B3806887BB87B3806187BB87B3BF
:100500008F7B87BB0E94720283E58DB90E947202C5
:100510000895CF93C82F0E946E0283E00E94650267
:100520008C2F0E9465028FE00E946902C82F0E94F2
:1005300072028C2FCF910895CF93DF93D82FC62FBF
:100540000E946E0282E00E9465028D2F0E94650269
:100550008C2F0E9465020E947202DF91CF91089554
:10056000CF93C82F0E946E02C83030F480E88C0F01
:100570000E9465020E947202CF9108951F93CF934B
:10058000DF93182FD62FC42F0E946E0285E00E94A1
:100590006502812F0E9465028D2F0E9465028C2FBB
:1005A0000E9465020E947202DF91CF911F9108950F
:1005B0000E946E0280EC0E9465020E947202089501
:1005C0008AB780648ABF8BB780648BBF85B782602F
:1005D00085BF85B78E7F85BF78940895482F60EEDC
:1005E0008FE00E94BE0208950E94E00243E06FEF98
:1005F0008AE20E94BE0241EB6FEF89E20E94BE02D6
:1006000045E06FEF88E20E94BE0248E068E08FE0BC
:100610000E94BE0280E00E94EE0243E063E08BE2B3
:100620000E94BE0240E260E28BE20E94BE0240E60F
:1006300060E680E60E94BE020895FF920F931F932A
:10064000CF93DF93C62FF72E082F192F6695669547
:10065000669581E30E949C026C2F6295660F607E16
:10066000685F82E30E949C026FEF84E30E949C0219
:100670006FEF83E30E949C02DF2D6F2D85E30E94C4
:100680009C02C0E00BC0802F912FFC01EC0FF11DEC
:10069000608186E38C0F0E949C02CF5FCD1710F41F
:1006A000C83088F381E00E94B002DF91CF911F91A2
:1006B0000F91FF900895DF92EF92FF920F931F9397
:1006C000CF93DF9381E60E948902D82EDD0CDD0CEA
:1006D000DD0C82E60E948902829586958770D80E8D
:1006E00085E60E948902D82F90E00E94F7067C01DF
:1006F000C0E00AC087010C0F111D86E68C0F0E9416
:100700008902F8018083CF5FCD1710F4C83090F3D1
:100710006D2D7D2F8E2D9F2DDF91CF911F910F91EC
:10072000FF90EF90DF9008950F931F93CF93DF9387
:10073000D62FC72F082F192F8AE092E09F938F930F
:100740000E9463081F92DF9385E192E09F938F934D
:100750000E946308DC2F1F92CF9381E292E09F9367
:100760008F930E9463088DB79EB70A960FB6F894D0
:100770009EBF0FBE8DBFC0E013C0802F912FFC0124
:10078000EC0FF11D80811F928F938CE192E09F937B
:100790008F930E946308CF5F0F900F900F900F9080
:1007A000CD1758F3DF91CF911F910F9108951F92AC
:1007B0000F920FB60F9211242F933F934F935F9395
:1007C0006F937F938F939F93AF93BF93CF93EF9349
:1007D000FF938EE00E9489028E70C82FC6951F92EB
:1007E000CF9388E392E09F938F930E9463080F90CA
:1007F0000F900F900F90C130A9F48DE20E948902F2
:100800001F928F938EE492E09F938F930E946308D0
:1008100040E061E28CE20E94BE020F900F900F90C8
:100820000F901FC0C63079F40E945B03C62F0E9450
:100830009403C23011F40E948F0140E061E08CE229
:100840000E94BE020EC0C73051F40E945B030E949A
:10085000940340E062E08CE20E94BE0202C00E946B
:100860005B0340E063E08CE20E94BE0240E064E093
:100870008CE20E94BE028AB780648ABFFF91EF912A
:10088000CF91BF91AF919F918F917F916F915F9128
:100890004F913F912F910F900FBE0F901F90189581
:1008A000FF920F931F93CF93DF93F82E062F142FF1
:1008B00083E090E00E94F706EC01F88209831A8336
:1008C00061E073E09D2F0E941D03CE010E948F07FF
:1008D000DF91CF911F910F91FF9008951F920F927A
:1008E0000FB60F9211242F933F934F935F936F9303
:1008F0007F938F939F93AF93BF93EF93FF9389E67B
:1009000092E09F938F930E9463080F900F90FF9146
:10091000EF91BF91AF919F918F917F916F915F9177
:100920004F913F912F910F900FBE0F901F901895F0
:100930001F920F920FB60F9211242F933F934F9354
:100940005F936F937F938F939F93AF93BF93CF9357
:10095000DF93EF93FF930E948B01D82F0E948801B1
:10096000C82F0E9469014D2F6C2F0E9450041092D5
:10097000890010928800FF91EF91DF91CF91BF9194
:10098000AF919F918F917F916F915F914F913F9127
:100990002F910F900FBE0F901F90189587B3816015
:1009A00087BB87B3826087BB86B3826088BB0895AC
:1009B00085B7806885BF80B7806280BF80B78F7E33
:1009C00080BF80B7877F80BF08950E94CE040E94B9
:1009D000D8040E943B018FE190E00E94E5060E944E
:1009E00058010E94570523E02A95F1F700000E9464
:1009F00076020E94D80262EF76E08CEE96E00E94CA
:100A000018088FE00E94A90561E082E40E9459065F
:100A100040E06BE08FE692E00E9400060E94F40244
:100A20000E94880180918D03811103C00E94D20130
:100A300002C00E949D010E9469018230910569F007
:100A40001CF4019739F015C08330910549F00497E3
:100A500061F00FC00E941E020CC00E94340209C047
:100A60000E9448020E94570504C00E945A020E9438
:100A700057050E948B01D82F0E948801C82F0E9421
:100A800069014D2F6C2F0E9450040E9488010E9422
:100A9000310660E082E40E9459068FEF9FE721E073
:100AA000815090402040E1F700C000C0BBCF80E003
:100AB00090E007C0FC01EF58FC4F2081209300100C
:100AC000019686319105B4F3E0E0F0E180E28083A5
:100AD00082E080830895883018F480558093001058
:100AE0000895E0E0F0E191E2908380838FEF8083CE
:100AF0000895883040F420E8829FC001112490932B
:100B00008F0380938E03089520918E0330918F037D
:100B1000220F232F221F330B319533273695322F87
:100B2000222737952795280F311D30938F03209367
:100B30008E03089520918E0330918F03F901F45EA6
:100B400080832F5F3F4F337030938F0320938E034A
:100B5000089520E030E005C0F901F45E80832F5F46
:100B60003F4F211594E03907BCF310928F03109288
:100B70008E0308958A3069F480918E0390918F03DB
:100B800080589F4F90938F0380938E0380E090E076
:100B900008958D3049F420918E0330918F03207891
:100BA00030938F0320938E0390EE980F903628F5A4
:100BB00040E050E01CC020918E0330918F03D9019A
:100BC000B45EE82FF0E0B097EE0FFF1FEE0FFF1FAF
:100BD000E40FF51FE059FF4FE491EC932F5F3F4F77
:100BE000337030938F0320938E034F5F5F4F4430F9
:100BF00051050CF380E090E0089581E090E00895C5
:100C0000EF92FF921F93CF93DF93483020F5162F7A
:100C10007C0120E8429FC001112490938F038093B0
:100C20008E03C0E0D0E014C0212F30E0C217D307FC
:100C30004CF460E070E0F701EC0FFD1F80810E9432
:100C4000BA0505C060E070E080E20E94BA05219616
:100C5000C032D1054CF3DF91CF911F91FF90EF90FF
:100C60000895CF93DF9380E00E946B0580E00E949F
:100C70007105C0E0D0E016C0FE01F45E8081809373
:100C80000012CE018F779927892B59F4CE01DD23ED
:100C900014F481589F4F880F892F881F990B0E9449
:100CA0006B052196C11584E0D80734F3DF91CF910D
:100CB0000895683008F088C0823451F118F4813406
:100CC00041F00895833409F442C0843409F45EC0CD
:100CD000089589B3282F30E0062E02C03595279558
:100CE0000A94E2F720FF0AC021E030E002C0220FA0
:100CF000331F6A95E2F72095822308C021E030E097
:100D000002C0220F331F6A95E2F7822B8BBB089536
:100D100086B3282F30E0062E02C0359527950A9419
:100D2000E2F720FF0AC021E030E002C0220F331FAB
:100D30006A95E2F72095822308C021E030E002C0E6
:100D4000220F331F6A95E2F7822B88BB089583B385
:100D5000282F30E0062E02C0359527950A94E2F739
:100D600020FF0AC021E030E002C0220F331F6A9545
:100D7000E2F72095822308C021E030E002C0220F74
:100D8000331F6A95E2F7822B85BB089580B3282F25
:100D900030E0062E02C0359527950A94E2F720FF31
:100DA0000AC021E030E002C0220F331F6A95E2F74B
:100DB0002095822308C021E030E002C0220F331FBB
:100DC0006A95E2F7822B82BB089590BD89B988E1CC
:100DD0008AB98EE880BD08955D9BFECF8CB980E016
:100DE00090E008955F9BFECF8CB190E008950F9343
:100DF0001F93CF93DF938230910510F482E090E04F
:100E0000E0919203F091930320E030E0A0E0B0E0A5
:100E1000309719F140815181028113814817590798
:100E2000C8F08417950769F4109731F012960C9367
:100E3000129713961C9327C0009392031093930369
:100E400022C02115310519F04217530718F49A01F1
:100E5000BD01EF01DF01F801DBCF21153105F9F00C
:100E6000281B390B2430310580F48A819B81611560
:100E7000710521F0FB019383828304C09093930357
:100E800080939203FE01329644C0FE01E20FF31FED
:100E90008193919322503109398328833AC020915C
:100EA000900330919103232B41F420910201309162
:100EB000030130939103209390032091000130911E
:100EC00001012115310541F42DB73EB740910401D0
:100ED00050910501241B350BE0919003F091910393
:100EE000E217F307A0F42E1B3F0B2817390778F001
:100EF000AC014E5F5F4F2417350748F04E0F5F1F60
:100F000050939103409390038193919302C0E0E04A
:100F1000F0E0CF01DF91CF911F910F910895CF9312
:100F2000DF93009709F481C0FC013297138212828B
:100F3000A0919203B0919303109781F420813181A5
:100F4000820F931F20919003309191032817390746
:100F500051F5F0939103E093900367C0ED0120E019
:100F600030E0CE17DF0740F44A815B819E014115D6
:100F70005105F1F0EA01F5CFD383C283408151815D
:100F8000840F951FC817D90759F488819981840F58
:100F9000951F0296918380838A819B8193838283AC
:100FA0002115310529F4F0939303E09392033DC09A
:100FB000E901FB83EA8349915991C40FD51FEC17CE
:100FC000FD0761F480819181840F951F0296E901EC
:100FD00099838883828193819B838A83E0E0F0E018
:100FE00012968D919C911397009719F0FD01DC01E9
:100FF000F7CF8D919C9111979D012E5F3F4F820FEE
:10100000931F20919003309191032817390769F4B9
:10101000309729F4109293031092920302C0138226
:101020001282B0939103A0939003DF91CF91089522
:101030000F931F93CF93DF93009731F461157105E0
:1010400019F480E090E03AC08B01EC016EE070E0B2
:1010500081E090E00E945A0AFC01892B91F380E81C
:1010600083830115110571F01387028781E883835B
:101070008091940390919503892B21F4F09395032B
:10108000E09394032097C9F0D187C0878381826061
:1010900083838091960390919703892B71F4F09349
:1010A0009703E09396038091980390919903892B7D
:1010B00021F4F0939903E0939803CF01DF91CF914E
:1010C0001F910F910895A0E0B0E0E9E6F8E00C94DC
:1010D0003D0BAE014B5F5F4FFA0161917191AF0122
:1010E00080919603909197030E947908E2E00C9416
:1010F000590BABE0B0E0EFE7F8E00C942D0B6C017E
:101100007B018A01FC0117821682838181FFCCC199
:10111000CE0101963C01F6019381F70193FD859183
:1011200093FF81917F01882309F4BAC1853239F494
:1011300093FD859193FF81917F01853229F4B6015A
:1011400090E00E94930AE7CF912C212C312CFFE1F3
:10115000F315D8F08B3279F038F4803279F083329D
:10116000A1F4232D20611DC08D3261F0803369F41C
:10117000232D216016C0832D8260382EE32DE4607C
:101180003E2E2AC0F32DF8601DC037FC2DC020ED87
:10119000280F2A3040F08E32B9F436FC81C1232D5D
:1011A0002064322E19C036FE06C08AE0989E200DBB
:1011B0001124922E11C0EAE02E9E200D1124222E21
:1011C000F32DF0623F2E08C08C3621F4832D806809
:1011D000382E02C0883641F4F70193FD859193FFC4
:1011E00081917F018111B3CF982F9F7D95549330CA
:1011F00028F40C5F1F4F9FE399830DC0833631F0B5
:10120000833771F0833509F059C021C0F80180811E
:1012100089830E5F1F4F88248394912C530113C040
:101220002801F2E04F0E511CF801A080B18036FE7B
:1012300003C0692D70E002C06FEF7FEFC5010E940F
:10124000880A4C018201F32DFF773F2E16C028013A
:1012500022E0420E511CF801A080B18036FE03C08E
:10126000692D70E002C06FEF7FEFC5010E94760A22
:101270004C01F32DF0683F2E820133FC1BC0822D00
:1012800090E088169906B0F4B60180E290E00E94E2
:10129000930A2A94F4CFF50137FC859137FE8191AA
:1012A0005F01B60190E00E94930A21102A9421E088
:1012B000821A91088114910471F7E8C0843611F004
:1012C000893641F5F80137FE07C06081718182815E
:1012D00093810C5F1F4F08C060817181072E000C45
:1012E000880B990B0E5F1F4FF32DFF763F2E97FF54
:1012F00009C090958095709561957F4F8F4F9F4F56
:10130000F0683F2E2AE030E0A3010E94CF0A882E29
:10131000861845C0853731F4232D2F7EB22E2AE062
:1013200030E025C0932D997FB92E8F36C1F018F487
:10133000883579F0B5C0803719F0883721F0B0C012
:10134000E92FE061BE2EB4FE0DC0FB2DF460BF2E70
:1013500009C034FE0AC0292F2660B22E06C028E03C
:1013600030E005C020E130E002C020E132E0F801C9
:10137000B7FE07C060817181828193810C5F1F4F2E
:1013800006C06081718180E090E00E5F1F4FA30175
:101390000E94CF0A882E8618FB2DFF773F2E36FE3F
:1013A0000DC0232D2E7FA22E891458F434FE0BC0BD
:1013B00032FC09C0832D8E7EA82E05C0B82CA32C2C
:1013C00003C0B82C01C0B92CA4FE0FC0FE01E80D6B
:1013D000F11D8081803321F49A2D997EA92E09C0B8
:1013E000A2FE06C0B394B39404C08A2D867809F097
:1013F000B394A3FC11C0A0FE06C0B21488F4280C5C
:10140000922C9B180EC0B21460F4B60180E290E0FA
:101410000E94930AB394F7CFB21418F42B1802C0A9
:10142000982C212CA4FE10C0B60180E390E00E940D
:10143000930AA2FE17C0A1FC03C088E790E002C097
:1014400088E590E0B6010CC08A2D867859F0A1FE9F
:1014500002C08BE201C080E2A7FC8DE2B60190E001
:101460000E94930A891438F4B60180E390E00E9448
:10147000930A9A94F7CF8A94F301E80DF11D8081C5
:10148000B60190E00E94930A8110F5CF222009F462
:1014900042CEB60180E290E00E94930A2A94F6CFF1
:1014A000F6018681978102C08FEF9FEF2B96E2E1D4
:1014B0000C94490B0F931F93CF93DF93869F80016A
:1014C000879F100D969F100D1124C8010E94F706EA
:1014D000EC01009729F0A80160E070E00E94810A09
:1014E000CE01DF91CF911F910F910895FC010590DE
:1014F000615070400110D8F7809590958E0F9F1F16
:101500000895DC0101C06D9341505040E0F708950B
:10151000FC016150704001900110D8F780959095C2
:101520008E0F9F1F08950F931F93CF93DF93FB019F
:10153000238121FD03C08FEF9FEF2CC022FF16C037
:1015400046815781248135814217530744F4A08195
:10155000B1819D012F5F3F4F318320838C93268182
:1015600037812F5F3F4F3783268314C08B01EC01F7
:10157000FB010084F185E02D0995892BE1F6D80166
:1015800016968D919C911797019617969C938E9322
:101590001697CE01DF91CF911F910F910895FA0117
:1015A000AA27283051F1203181F1E8946F936E7FA2
:1015B0006E5F7F4F8F4F9F4FAF4FB1E03ED0B4E093
:1015C0003CD0670F781F891F9A1FA11D680F791FD4
:1015D0008A1F911DA11D6A0F711D811D911DA11DE5
:1015E00020D009F468943F912AE0269F11243019F5
:1015F000305D3193DEF6CF010895462F4770405D90
:101600004193B3E00FD0C9F7F6CF462F4F70405D3E
:101610004A3318F0495D31FD4052419302D0A9F799
:10162000EACFB4E0A6959795879577956795BA9593
:10163000C9F700976105710508959B01AC010A2E59
:1016400006945795479537952795BA95C9F7620F30
:10165000731F841F951FA01D08952F923F924F92D4
:101660005F926F927F928F929F92AF92BF92CF9232
:10167000DF92EF92FF920F931F93CF93DF93CDB73B
:10168000DEB7CA1BDB0B0FB6F894DEBF0FBECDBFB3
:1016900009942A88398848885F846E847D848C8484
:1016A0009B84AA84B984C884DF80EE80FD800C818D
:1016B0001B81AA81B981CE0FD11D0FB6F894DEBF70
:0C16C0000FBECDBFED010895F894FFCFE0
:1016CC0000009A0320004E034E45555452414C00E5
:1016DC00444F574E005550005249474854004C4512
:1016EC0046540043757272656E7420676F616C733B
:1016FC003A2025640A0D00474F414C21474F414C7D
:10170C0021474F414C21474F414C21474F414C21E0
:10171C00474F414C21474F414C21474F414C2147AA
:10172C004F414C21474F414C21474F414C21474F92
:10173C00414C21474F414C21474F414C21474F4190
:10174C004C21474F414C21474F414C21474F414C75
:10175C0021474F414C21474F414C21474F414C2190
:10176C00474F414C21474F414C21474F414C21475A
:10177C004F414C21474F414C21474F414C21474F42
:10178C00414C21474F414C21474F414C21474F4140
:10179C004C21474F414C21474F414C21474F414C25
:1017AC00210043757272656E742073636F72653AB3
:1017BC00202078002D2D2D2D0053454C20524947CB
:1017CC0048540A0D006C656674000A0D43414E4680
:1017DC0052414D45000A0D2069643A20253032787B
:1017EC00000A0D20646174615F6C3A2025640A0D57
:1017FC0020646174613A20000A696E7465727275B6
:10180C0070742C2049434F443A2025640A004572D9
:10181C00726F7220696E746572727570742C2065AB
:10182C00666C673A2025780A006B6C696B6B0073E9
:10183C007472696E672074657374004A6F7973747F
:10184C0069636B3A20257320202020202020200A59
:10185C000D00536C696465722072696768743A2074
:10186C002564202020200A0D00536C6964657220C9
:10187C006C6566743A20256420202020200A0D0017
:10188C00537461746963206164647265737320744A
:10189C006573740A0D0053746172742047616D6531
:1018AC00004D656E75206974656D2032004D656E56
:1018BC0075206974656D2033004D656E75206974F3
:1018CC00656D2034004D656E75206974656D20352D
:1018DC00004D656E75206974656D2036004D656E22
:1018EC0075206974656D2037004D656E75206974BF
:1018FC00656D2038004D656E75206974656D2039F5
:10190C00004D656E75206974656D2031300047415E
:10191C004D4554494D4500D602E102ED02F9020550
:10192C000311031D03290335034103183C7EDB1807
:10193C0018AEA1DA12C8A83FD5808150D921200257
:08194C00DB30AD00A4A6AF00E2
:00000001FF
